:100000000C9434000C9451000C9451000C94510049
:100010000C9453000C9451000C9451000C9451001A
:100020000C9451000C9451000C9451000C942D012F
:100030000C9451000C9451000C94FC000C94510051
:100040000C9451000C9451000C9451000C945100EC
:100050000C9451000C9451000C9451000C945100DC
:100060000C9451000C94510011241FBECFEFD8E026
:10007000DEBFCDBF11E0A0E0B1E0E6ECF1E102C0EF
:1000800005900D92A234B107D9F721E0A2E4B1E0C6
:1000900001C01D92A335B207E1F70E9403030C943F
:1000A000E1080C9400001F920F920FB60F921124DA
:1000B0008F939F9386B180934901809149018695E2
:1000C0008170809352018091490182FB882780F9D9
:1000D0008093480180914A01811118C080914801A4
:1000E000811108C080915201882321F081E0809322
:1000F0004D0155C080914801882329F1809152011A
:10010000811121C082E080934D010EC080914A018F
:100110008130B9F580914801811129C08091520147
:10012000811125C010924D01809150019091510193
:10013000C3974CF080915001909151010197909399
:1001400051018093500190914D0180914A0198177F
:1001500039F081E08093450180914D0180934A01FF
:100160009F918F910F900FBE0F901F9018958091C7
:100170004801882341F380915201882321F383E0D1
:10018000B6CF80914A01823011F5809148018111EA
:1001900013C08091520181110FC010924D018091C6
:1001A0005001909151018A3591056CF68091500172
:1001B000909151010196C3CF80914801882319F293
:1001C00080915201882309F4BECF83E09CCF8091B7
:1001D0004801811106C080915201882311F081E00D
:1001E00092CF80914801882309F4ADCF80915201CC
:1001F0008111A9CF82E07BCF1F920F920FB60F9291
:1002000011242F933F938F939F9385B190E2892779
:1002100085B98091420190914301019690934301E9
:10022000809342012091420130914301809100016D
:10023000909101012817390739F485B58C7F85BD68
:1002400010924301109242019F918F913F912F9103
:100250000F900FBE0F901F9018951F920F920FB620
:100260000F9211248F93EF93FF93E1E8F0E08081E8
:100270008E7F808380818B7F808310924601FF91E7
:10028000EF918F910F900FBE0F901F901895249AA9
:100290008FE599E00197F1F700C0000024988BE00A
:1002A00091E00197F1F700C000001C990AC01C9B67
:1002B000FECF87EC90E00197F1F700C0000081E0ED
:1002C000089580E00895249A2C988AE08A95F1F7A1
:1002D00000C024988FEE90E00197F1F700C0000075
:1002E0000895249A2C988FEE90E00197F1F700C0C2
:1002F000000024989AE09A95F1F700C00895CF93F2
:10030000DF93D82FC8E0D0FF08C00E946301D695C4
:10031000C150C9F7DF91CF9108950E947101F7CFC5
:100320000E944701882331F08CEC0E947F0184E415
:100330000C947F010895249A2C988AE08A95F1F70D
:1003400000C02498E5E3EA95F1F7000083B1E7ECFB
:10035000F0E03197F1F700C00000807108951F931D
:10036000CF93DF93D8E011E0C0E00E949B018111A0
:10037000C12B110FD150C9F78C2FDF91CF911F9155
:100380000895EF92FF920F931F93CF93DF93CDB712
:10039000DEB729970FB6F894DEBF0FBECDBF249805
:1003A0002C982FEF81EE94E0215080409040E1F7AF
:1003B00000C000001C990EC080E029960FB6F8948A
:1003C000DEBF0FBECDBFDF91CF911F910F91FF9088
:1003D000EF9008950E944701882371F38CEC0E94EE
:1003E0007F018EEB0E947F018E010F5F1F4F7E0108
:1003F000EAE0EE0EF11C0E94AF01F80181938F013B
:10040000EE15FF05C1F70E9447018823A9F28CEC85
:100410000E947F018EE40E947F018B810E947F01F8
:100420008C810E947F018FE70E947F018FE891E01D
:100430000197F1F700C000000E944701882309F4EA
:10044000BBCF8CEC0E947F0188E40E947F019FEF6C
:10045000E9EFF0E09150E040F040E1F700C000002B
:1004600081E0ABCFCF93DF93EC010E949B01882307
:1004700001F10E9447018823D1F08CEC0E947F019A
:100480008EEB0E947F010E94AF0188830E94AF0122
:1004900089830E94AF010E94AF010E94AF010E94B8
:1004A000AF010E94AF010E94AF010E94AF0181E045
:1004B00001C080E0DF91CF9108959BB19F709BB9FF
:1004C0009BB1807F892B8BB9299A299A2998089505
:1004D000CF93C82F28980E945D028C2F8295807F31
:1004E0000E945D028FE39FE10197F1F700C00000D9
:1004F000CF910895811104C080E8860F0C946802A2
:1005000080ECFBCF84B1836084B98AB1806F8AB9F3
:100510008FE59AEE0197F1F700C0000080E30E949A
:100520005D028FE19EE40197F1F700C0000080E3D7
:100530000E945D028FED91E00197F1F700C000008D
:1005400080E30E945D0280E20E945D028FE39FE1F2
:100550000197F1F700C0000088E20E9468028FE076
:100560000C946802CF93C82F289A0E945D028C2FAA
:100570008295807F0E945D028FE39FE10197F1F7F2
:1005800000C00000CF910895CF93DF93EC018991D3
:10059000811103C0DF91CF9108950E94B202F7CF7D
:1005A00084B5826084BDEEE6F0E080818260808365
:1005B0008AEF87BD0895E1E8F0E08081886080835C
:1005C000AFE6B0E08C9182608C9384E294EF9093DC
:1005D00089008093880080818E7F808380818B7FDB
:1005E00080830895E0EBF0E08081836080838081E8
:1005F0008068808383E28093B300E1EBF0E0808148
:10060000876080830895CF93DF93CDB7DEB7A1973E
:100610000FB6F894DEBF0FBECDBF81E090E00E9420
:10062000900880934F0180914F01823320F0809198
:100630004F018B3548F086E480934F0160914F0164
:1006400081E090E00E94980882E090E00E9490088B
:1006500080934E0180914E01823320F080914E01B3
:100660008B3548F085E580934E0160914E0182E024
:1006700090E00E94980884B1886384B92B9A87B16E
:10068000886387B988B1886388B988B1866088B97A
:100690008BB18C608BB90E9482028091680082606D
:1006A0008093680080916C00866080936C007894E1
:1006B0000E94D0020E94DB020E94F20281E00E94AE
:1006C00068026BE071E0CE0101960E94DB0560E0FC
:1006D00080E00E947A02CE0101960E94C40269E184
:1006E00071E0CE0145960E94DB0560E081E00E944A
:1006F0007A02CE0145960E94C4022FEF33ED40E30B
:10070000215030404040E1F700C0000081E00E94ED
:10071000680260E080E00E947A028EE191E00E942F
:10072000C40260E081E00E947A0289E291E00E94C6
:10073000C40280914F011F928F93BFE2EB2EB1E074
:10074000FB2EFF92EF921F9213E0D12EDF928E01CB
:10075000035E1F4F1F930F930E94E205C8010E9482
:10076000C40268E081E00E947A0283E391E00E9483
:10077000C40280914E011F928F93FF92EF921F92BD
:10078000DF927E016AE1E60EF11CFF92EF920E9479
:10079000E205C7010E94C40286B18093490180919D
:1007A000490186958170809352018091490182FBB5
:1007B000882780F980934801809148010FB6F8940A
:1007C000DEBF0FBECDBF811139C1809152018111B1
:1007D00035C110924A0180914A0180934D010E94D7
:1007E000C1010E94900165E0262E312C70E1472E58
:1007F000512CEAE36E2EE1E07E2E4E013FE0830EA7
:10080000911CFAE0CF2ED12CAFE2AA2EA1E0BA2E95
:10081000CE0180960E943202882309F44EC065E022
:1008200080E00E947A0289A190E0982F882728A171
:10083000280F392F311D49E0429FC001439F900D81
:100840001124B1010E94B305CB019E5F9C0197FF6B
:1008500002C0215F3F4F44E0359527954A95E1F767
:1008600020934B0130934C01B2010E94B3056AE022
:10087000689FA001699F500D112457FF02C0415F7E
:100880005F4F84E0559547958A95E1F75F934F93C5
:100890003F932F937F926F921F9286E08F939F9248
:1008A0008F920E94E205C4010E94C4020E9490013E
:1008B0000FB6F894DEBF0FBECDBF80914601811107
:1008C00011C020914B0130914C014CEF4203C0010B
:1008D000439F900D1124B6010E94B3056D5C7F4FBC
:1008E0006093B3004A99C2C061E060934701809170
:1008F0004F0190E0909351018093500163E081E0BB
:100900000E947A028FE30E94B2026CE081E00E94B2
:100910007A028DE30E94B20281E080934601209129
:100920004F013CEF3203C0011124B6010E94B30510
:100930006D5C7F4F6093B3008091810085608093F0
:10094000810080914701813009F0B4C08091450158
:10095000882309F441C01092450165E081E00E94BE
:100960007A0220914E0180915001909151012817F7
:10097000190694F1809150019091510180934F019B
:1009800060914F0181E090E00E94980880914601BB
:10099000882369F020914F013CEF3203C0011124FC
:1009A000B6010E94B3056D5C7F4F6093B3008091E8
:1009B0004F011F928F93BF92AF921F9283E08F934C
:1009C0001F930F930E94E205C8010E94C4020FB654
:1009D000F894DEBF0FBECDBF20914F0180914B0137
:1009E00090914C012817190609F00CF4A8C04398FF
:1009F00088B1806388B980914E0120914B0130917C
:100A00004C0190E00396821793070CF4A5C0409127
:100A10004F014350550B81E0241735070CF080E05F
:100A20009091440191119AC0882309F4F1CE85B5C3
:100A3000836085BD81E080934401EACE80914801C6
:100A4000811108C080915201882321F081E08093B8
:100A50004A01C1CE80914801882331F08091520132
:100A6000811102C082E0F3CF83E0F1CF4B9969CFCF
:100A700042E04093470180914E0190E090935101F4
:100A80008093500163E081E00E947A028DE30E942E
:100A9000B2026CE081E00E947A028FE30E94B2020F
:100AA00081E08093460120914E016CEF6203C0010A
:100AB00011243BCF823009F08FCF809145018823EC
:100AC00009F48ACF109245016EE081E00E947A021B
:100AD00020914F01809150019091510128171906E2
:100AE00011F00CF079CF80915001909151018093D9
:100AF0004E0160914E0182E090E00E949808809142
:100B00004601882369F020914E013CEF3203C00179
:100B10001124B6010E94B3056D5C7F4F6093B30052
:100B200080914E011F928F93BF92AF921F9283E0EC
:100B30008F93FF92EF920E94E205C70146CF20916A
:100B40004E012817190624F4459888B1886152CFC0
:100B5000449888B188624ECF81E062CF811158CE2F
:100B60001092440155CE97FB072E16F4009407D03F
:100B700077FD09D00E94C70507FC05D03EF490958B
:100B800081959F4F0895709561957F4F0895AA1B99
:100B9000BB1B51E107C0AA1FBB1FA617B70710F068
:100BA000A61BB70B881F991F5A95A9F7809590959A
:100BB000BC01CD010895FB01DC0101900D920020E4
:100BC000E1F70895AEE0B0E0E8EEF5E00C94B80887
:100BD0000D891E898F89988D26E02C831A830983BD
:100BE00097FF02C080E090E801979E838D83AE015D
:100BF000455E5F4F698D7A8DCE0101960E94120687
:100C00004D815E8157FD0AC02F81388542175307F9
:100C10000CF49A01020F131FF80110822E96E4E0E3
:100C20000C94D408ABE0B0E0E8E1F6E00C94AA083C
:100C30007C013B018A01FC0117821682838181FFBE
:100C4000C8C1CE0101965C01F7019381F30193FDC8
:100C5000859193FF81913F01882309F453C1853227
:100C600039F493FD859193FF81913F01853229F4F9
:100C7000B70190E00E940208E7CF912C212C312C83
:100C8000FFE1F31538F08B3211F190F4803209F165
:100C9000833229F137FC3CC020ED280F2A3050F573
:100CA00036FE20C08AE0989E200D1124922E06C0A8
:100CB0008D3291F0803371F7689430F8F30193FD31
:100CC000859193FF81913F018111DACF21C0689412
:100CD00031F8689432F8F2CF689433F8EFCF689423
:100CE00034F8ECCFEAE02E9E200D1124222E6894D9
:100CF00035F8E4CF8E3229F436FC04C1689436F816
:100D0000DDCF8C3619F4689437F8D8CF8836B1F235
:100D1000982F9F7D95549330E0F08336A1F183376F
:100D2000C1F1833509F063C02801F2E04F0E511C78
:100D3000F801C080D180692D70E036FC02C06FEFF1
:100D40007FEFC6010E94EC074C01689437F88201DE
:100D50000AC00C5F1F4FFFE3F98388248394912C12
:100D60006501E89437F833FE2DC0522C81149104AC
:100D700071F5552009F468CFB70180E290E00E9438
:100D800002085A94F6CFF801808189830E5F1F4FC5
:100D9000E4CF2801F2E04F0E511CF801C080D18051
:100DA000692D70E036FC02C06FEF7FEFC6010E9434
:100DB000F7074C018201D5CFB70180E290E00E9495
:100DC00002082A942814190409F0B0F7CECFF601CE
:100DD00037FC859137FE81916F01B70190E00E9449
:100DE000020851105A94F1E08F1A9108BFCF84364F
:100DF00019F0893609F077C0F80137FE6BC06081C1
:100E00007181828193810C5F1F4FF32DFF763F2EFE
:100E100097FF09C090958095709561957F4F8F4F92
:100E20009F4F689437F82AE030E0A5010E9432080D
:100E3000C82ECA188C2C432C36FE0CC0E89440F8FF
:100E4000C91440F434FE05C032FC03C0F32DFE7E0D
:100E50004F2E892C44FE95C0FE01EC0DF11D8081C2
:100E6000803309F087C0242D297E422E842D88707E
:100E7000582E43FC95C040FE8FC09C2C821418F461
:100E80002C0C922C981844FE91C0B70180E390E09E
:100E90000E94020842FE09C088E790E041FE02C0BD
:100EA00088E590E0B7010E940208C91408F48AC0DE
:100EB000CA94D12C9FEFC91AD90ACA0CDB1CF601BF
:100EC00082916F01B70190E00E940208AC14BD044A
:100ED000B1F74FCF60817181072E000C880B990B01
:100EE0000E5F1F4F92CFD32CE894D4F82AE030E065
:100EF000853739F1232D297FD22E8F3601F148F421
:100F00008835A9F0F701868197812B96E2E10C9450
:100F1000C608803749F08837A9F7D4FE02C0689424
:100F2000D2F820E130E00DC06894D4F8F6CF34FE5A
:100F300003C0822F8660D82E20E132E002C028E074
:100F400030E0F801D7FE0FC060817181828193810A
:100F50000C5F1F4FA5010E943208C82ECA183D2CF5
:100F6000E89437F867CF6081718190E080E00E5F90
:100F70001F4FF0CF42FC02C0839478CF83948394B8
:100F800075CF842D867809F471CFF6CFB70180E252
:100F900090E00E94020883948214C0F3512C73CF16
:100FA000522C5818821408F46ECFF8CF842D86780E
:100FB00009F47BCF8BE241FE80E247FC8DE2B70172
:100FC00090E071CFB70180E390E00E9402089A940C
:100FD0006CCF8FEF9FEF99CFFC010590615070406F
:100FE0000110D8F7809590958E0F9F1F0895FC01F2
:100FF0006150704001900110D8F7809590958E0F48
:101000009F1F08950F931F93CF93DF93182F092FDE
:10101000EB018B8181FD09C01FEF0FEF812F902F16
:10102000DF91CF911F910F91089582FF14C02E81FF
:101030003F818C819D81281739073CF4E881F98133
:10104000CF0101969983888310838E819F810196B9
:101050009F838E83E3CFE885F985812F0995892BBE
:10106000A1F3DACFFA01AA27283051F1203181F11A
:10107000E8946F936E7F6E5F7F4F8F4F9F4FAF4FA0
:10108000B1E03ED0B4E03CD0670F781F891F9A1FB3
:10109000A11D680F791F8A1F911DA11D6A0F711D67
:1010A000811D911DA11D20D009F468943F912AE073
:1010B000269F11243019305D3193DEF6CF0108955B
:1010C000462F4770405D4193B3E00FD0C9F7F6CF8C
:1010D000462F4F70405D4A3318F0495D31FD405254
:1010E000419302D0A9F7EACFB4E0A69597958795EA
:1010F00077956795BA95C9F70097610571050895C9
:101100009B01AC010A2E0694579547953795279574
:10111000BA95C9F7620F731F841F951FA01D08950C
:10112000F999FECF92BD81BDF89A992780B50895AF
:10113000262FF999FECF92BD81BDF89A019700B490
:10114000021639F01FBA20BD0FB6F894FA9AF99A30
:101150000FBE08952F923F924F925F926F927F92AF
:101160008F929F92AF92BF92CF92DF92EF92FF92B7
:101170000F931F93CF93DF93CDB7DEB7CA1BDB0B63
:101180000FB6F894DEBF0FBECDBF09942A88398808
:1011900048885F846E847D848C849B84AA84B9840F
:1011A000C884DF80EE80FD800C811B81AA81B9811B
:1011B000CE0FD11D0FB6F894DEBF0FBECDBFED012F
:0611C0000895F894FFCF32
:1011C600E8030201020103020504034545313039F3
:1011D6002050726F6A6563740050617269005465CD
:1011E6006D703A202D2D2D2D004C6F773D2000255A
:1011F600326400486967683D20002533642E256403
:021206000000E6
:00000001FF
