:100000000C9434000C9451000C9451000C94510049
:100010000C9451000C9451000C9451000C9451001C
:100020000C9451000C9451000C9451000C948800D5
:100030000C9451000C9451000C9451000C945100FC
:100040000C9451000C9451000C9451000C945100EC
:100050000C9451000C9451000C9451000C945100DC
:100060000C9451000C94510011241FBECFEFD8E026
:10007000DEBFCDBF11E0A0E0B1E0ECE1F4E002C0F2
:1000800005900D92A233B107D9F721E0A2E3B1E0C8
:1000900001C01D92A433B207E1F70E942F010C9416
:1000A0000C020C940000811105C043984598459AB4
:1000B00045980895439AFACFCF93DF93C82FD62F50
:1000C00061FB882780F90E9453008D2F81700E9468
:1000D0005300C1FB882780F90E9453008C2F817048
:1000E000DF91CF910C945300E1E8F0E080818860CB
:1000F0008083AFE6B0E08C9182608C938FE39FE1C8
:100100009093890080938800808181608083089526
:100110001F920F920FB60F9211248F939F9385B168
:1001200090E1892785B99F918F910F900FBE0F9015
:100130001F9018959BB19F709BB99BB1807F892BB5
:100140008BB9299A299A29980895CF93C82F28986E
:100150000E949A008C2F8295807F0E949A008FE3E4
:100160009FE10197F1F700C00000CF910895811140
:1001700004C080E8860F0C94A50080ECFBCF84B10E
:10018000836084B98AB1806F8AB98FE59AEE01974E
:10019000F1F700C0000080E30E949A008FE19EE426
:1001A0000197F1F700C0000080E30E949A008FEDF4
:1001B00091E00197F1F700C0000080E30E949A00EF
:1001C00080E20E949A008FE39FE10197F1F700C05F
:1001D000000088E20E94A5008FE00C94A500CF9358
:1001E000C82F289A0E949A008C2F8295807F0E94A7
:1001F0009A008FE39FE10197F1F700C00000CF91D3
:100200000895CF93DF93EC018991811103C0DF91B1
:10021000CF9108950E94EF00F7CFECE7F0E08081E6
:1002200080668083EAE7F0E08081876880830895B4
:1002300090917C00907F90937C0090917C008F70D7
:10024000892B80937C0080917A00806480937A006F
:1002500080917A0086FDFCCF809179000895CF933C
:10026000DF93CDB7DEB761970FB6F894DEBF0FBE50
:10027000CDBF0E94BF000E940D01249A87B1886201
:1002800087B90E947400789481E00E94A50060E024
:1002900071E0CE0101960E94050260E080E00E94BC
:1002A000B700CE0101960E9401016CE071E0CE0121
:1002B0000D960E94050260E081E00E94B700CE0129
:1002C0000D960E9401012FEF83ED90E321508040B5
:1002D0009040E1F700C0000060E080E00E94B700BD
:1002E00081E191E00E94010160E081E00E94B7009D
:1002F00081E291E00E94010181E00E94A500EE24CC
:10030000E39410E000E080E00E941801F82E87E7F7
:100310008F0D23E12F1508F44CC0023008F049C0BE
:10032000E02EEE0CE00E67E06E0D81E00E94B7005B
:1003300080E20E94EF000F5F6AE06E0D81E00E9494
:10034000B7008EE30E94EF008FEF93EC29E081501D
:1003500090402040E1F700C00000EE24E3949EEAC4
:100360009F0D80EE8F0D8732C0F51230B0F5F12E63
:10037000FF0CF10E67E06F0D80E00E94B70080E295
:100380000E94EF001F5F6AE06F0D80E00E94B700DF
:100390008EE30E94EF008FEF93EC29E081509040B4
:1003A0002040E1F700C00000602F812F0E945C0018
:1003B0002AC08732A0F6002391F2602F660F600FEB
:1003C000695F81E00E94B70080E20E94EF00015067
:1003D000602F660F600F695FB1CF973290F41123E1
:1003E00081F0612F660F610F695F80E00E94B700A6
:1003F00080E20E94EF001150612F660F610F695F6C
:10040000C4CFE110D1CFE12C7ECFFB01DC01019004
:0C0410000D920020E1F70895F894FFCF52
:10041C004545313039204C61622039005061726998
:10042C00004C6576656C3A203E4420204D202042DD
:10043C0000436F6C6F723A203E52202047202042BE
:02044C000000AE
:00000001FF
