:100000000C9434000C9449000C9449000C94490061
:100010000C9449000C9449000C9449000C9449003C
:100020000C9449000C9449000C9449000C947D00F8
:100030000C9449000C9449000C9449000C9449001C
:100040000C9449000C9449000C9449000C9449000C
:100050000C9449000C9449000C9449000C944900FC
:100060000C9449000C94490011241FBECFEFD8E036
:10007000DEBFCDBF11E0A0E0B1E0EAE0F3E002C0F6
:1000800005900D92AA33B107D9F70E9402010C9492
:1000900083010C940000882321F0439A459A4598E7
:1000A00008954398FBCFCF93DF93C82FD62F862F89
:1000B00082700E944B008D2F81700E944B008C2F0C
:1000C00082700E944B008C2F8170DF91CF910C9435
:1000D0004B00E1E8F0E0808188608083AFE6B0E02B
:1000E0008C9182608C938FE39FE190938900809341
:1000F000880080818160808308951F920F920FB6DF
:100100000F9211248F939F9385B190E1892785B930
:100110009F918F910F900FBE0F901F9018959BB1DC
:100120009F709BB99BB1807F892B8BB9299A299AA3
:1001300029980895CF93C82F28980E948F008C2F5C
:100140008295807F0E948F008FE39FE10197F1F7F6
:1001500000C00000CF910895811104C080E8860F8F
:100160000C949A0080ECFBCF8AB1806F8AB984B17D
:10017000836084B98FE59AEE0197F1F700C0000023
:1001800080E30E948F008FE19EE40197F1F700C0A9
:10019000000080E30E948F008FED91E00197F1F75E
:1001A00000C0000080E30E948F0080E20E948F0068
:1001B0008FE39FE10197F1F700C0000088E20E9401
:1001C0009A008FE00C949A00CF93C82F289A0E942F
:1001D0008F008C2F8295807F0E948F008FE39FE19C
:1001E0000197F1F700C00000CF910895CF93DF93FE
:1001F000EC018991811103C0DF91CF9108950E9494
:10020000E400F7CF0E94B40087B1886287B9249ACE
:100210000E946900789481E00E949A0062E080E088
:100220000E94AC0080E091E00E94F60062E081E074
:100230000E94AC008CE091E00E94F6002FEF83ED6D
:1002400090E3215080409040E1F700C0000081E041
:100250000E949A0060E080E00E94AC0089E191E099
:100260000E94F60060E081E00E94AC0089E291E02B
:100270000E94F600E12CCE2D8E2D07E010E092E0DA
:10028000E92E682F660F680F695F81E00E94AC005D
:1002900080E20E94E400602F81E00E94AC008EE3C7
:1002A0000E94E40087E0F82ED0E06C2F660F6C0F00
:1002B000695F80E00E94AC0080E20E94E4006F2D44
:1002C00080E00E94AC008EE30E94E400612F8D2F3D
:1002D0000E9453002FEF8EE994E22150804090401D
:1002E000E1F700C0000023E0F20ECD2FDF5FD33036
:1002F000E1F691E0910F0D5F812FC2E0933009F498
:0A030000BACF192FBECFF894FFCF3B
:10030A004545313039204C61622039005465737497
:10031A002050726F6772616D004C6576656C3A2089
:10032A003E4420204D20204200436F6C6F723A20D9
:0A033A003E52202047202042000020
:00000001FF
