:100000000C9434000C9451000C9451000C94510049
:100010000C9453000C9451000C9451000C9451001A
:100020000C9451000C9451000C9451000C9451000C
:100030000C9451000C9451000C9451000C945100FC
:100040000C9451000C9451000C9451000C945100EC
:100050000C9451000C9451000C9451000C945100DC
:100060000C9451000C94510011241FBECFEFD8E026
:10007000DEBFCDBF11E0A0E0B1E0E4E5F4E002C0F6
:1000800005900D92A230B107D9F721E0A2E0B1E0CE
:1000900001C01D92AA30B207E1F70E94BD010C9485
:1000A00028020C9400001F920F920FB60F92112499
:1000B0002F938F939F9386B18093060180910601C1
:1000C00082958170809309018091060185FB8827C4
:1000D00080F98093050180910701811118C08091FA
:1000E0000501811108C080910901882321F081E078
:1000F0008093080168C0809105018823B9F180913F
:100100000901811133C082E0809308010FC0809102
:100110000701813009F049C08091050181113BC080
:1001200080910901811137C010920801809102016C
:1001300090910301181619064CF4809102019091D8
:1001400003010197909303018093020180910001C4
:10015000909101018D3D95404CF08091000190916E
:1001600001010A9790930101809300019091080189
:1001700080910701981739F081E080930401809104
:100180000801809307019F918F912F910F900FBECF
:100190000F901F90189580910501882339F3809165
:1001A0000901882319F383E0A3CF809107018230EE
:1001B000A1F580910501811124C08091090181116F
:1001C00020C01092080180910201909103018F3F9D
:1001D00091054CF480910201909103010196909356
:1001E0000301809302018091000190910101843903
:1001F00091410CF0BBCF80910001909101010A96D2
:10020000B1CF80910501882309F4B0CF8091090115
:10021000882309F4ABCF83E077CF8091050181116A
:1002200006C080910901882311F081E06DCF809193
:100230000501882309F49ACF80910901811196CF95
:1002400082E056CFE0EBF0E08081836080838081A4
:100250008068808380E88093B300E1EBF0E08081E8
:10026000876080830895E0E8F0E080818362808386
:10027000E1E8F0E080818A61808380E49CE99093EA
:1002800089008093880088EB9BE090938B0080939B
:100290008A0008959BB19F709BB99BB1807F892B89
:1002A0008BB9299A299A29980895CF93C82F28980D
:1002B0000E944A018C2F8295807F0E944A018FE321
:1002C0009FE10197F1F700C00000CF9108958111DF
:1002D00004C080E8860F0C94550180ECFBCF84B1FC
:1002E000836084B98AB1806F8AB98FE59AEE0197ED
:1002F000F1F700C0000080E30E944A018FE19EE414
:100300000197F1F700C0000080E30E944A018FEDE1
:1003100091E00197F1F700C0000080E30E944A01DC
:1003200080E20E944A018FE39FE10197F1F700C04C
:10033000000088E20E9455018FE00C945501CF9394
:10034000C82F289A0E944A018C2F8295807F0E9494
:100350004A018FE39FE10197F1F700C00000CF91C0
:100360000895CF93DF93EC018991811103C0DF9150
:10037000CF9108950E949F01F7CF84B18C6084B91A
:1003800088B1806388B980E886B90E9433010E94F1
:1003900022018091680082608093680080916C00E7
:1003A000806380936C00789486B18093060180917D
:1003B000060182958170809309018091060185FB79
:1003C000882780F98093050180910901811126C059
:1003D00083E38093B30080910501811121C0809156
:1003E000090181111DC010920701809107018093BE
:1003F0000801809104018823E1F3109204018091A7
:100400000201909103018093B300809100019091CB
:10041000010190938B0080938A00EBCF8CECD9CFB5
:1004200080910501811108C080910901882321F084
:1004300081E080930701D9CF80910501882331F0B5
:1004400080910901811102C082E0F3CF83E0F1CFF6
:04045000F894FFCF4E
:02045400DC05C5
:00000001FF
