:100000000C9434000C943E000C943E000C943E0082
:100010000C943E000C943E000C943E000C943E0068
:100020000C943E000C943E000C943E000C943E0058
:100030000C943E000C943E000C943E000C943E0048
:100040000C943E000C943E000C943E000C943E0038
:100050000C943E000C943E000C943E000C943E0028
:100060000C943E000C943E0011241FBECFEFD8E04C
:10007000DEBFCDBF0E94B3000C94F5000C940000CD
:100080009BB19F709BB99BB1807F892B8BB9299ABB
:10009000299A29980895CF93C82F28980E94400044
:1000A0008C2F8295807F0E9440008FE39FE1019713
:1000B000F1F700C00000CF910895811104C080E8DD
:1000C000860F0C944B0080ECFBCF84B1836084B925
:1000D0008AB1806F8AB98FE59AEE0197F1F700C077
:1000E000000080E30E9440008FE19EE40197F1F759
:1000F00000C0000080E30E9440008FED91E0019776
:10010000F1F700C0000080E30E94400080E20E94FE
:1001100040008FE39FE10197F1F700C0000088E203
:100120000E944B008FE00C944B00CF93C82F289A6D
:100130000E9440008C2F8295807F0E9440008FE3B8
:100140009FE10197F1F700C00000CF910895CF9390
:10015000DF93EC018991811103C0DF91CF91089564
:100160000E949500F7CF87B18B7E87B9239888B11D
:10017000846188B92B9A0E94650080E0D0E0C0E0DD
:10018000C1110CC0349B10C01B9B1AC011E01D0F85
:10019000C0E0D930BCF0C0E010E014C0C13061F460
:1001A000329BF4CF1B9B0CC01FEF1D0FC1E0D11180
:1001B00009C0C1E019E006C0329BE8CF349BF4CF00
:1001C0001D2FC2E0843649F481E00E944B0080E399
:1001D0008D0F0E949500D12F80E0EFE1FEE4319772
:0E01E000F1F700C000008F5FCBCFF894FFCF87
:00000001FF
