:100000000C9434000C9449000C9449000C94490061
:100010000C9449000C9449000C9449000C9449003C
:100020000C9449000C9449000C9449000C9449002C
:100030000C9449000C9449000C9449000C9449001C
:100040000C9449000C9449000C9449000C9449000C
:100050000C9449000C9449000C9449000C944900FC
:100060000C9449000C94490011241FBECFEFD8E036
:10007000DEBFCDBF11E0A0E0B1E0E0EFFBE002C0E9
:1000800005900D92A832B107D9F70E9403010C9494
:10009000F6050C940000EF92FF920F931F93CF93FD
:1000A000DF9303E0D0E0C0E011E0812F0E94EC007C
:1000B000CC0FDD1F80FBEE24E0F8F12CCE0DDF1D10
:1000C0001F5F163091F7015079F7CE01DF91CF9184
:1000D0001F910F91FF90EF900C949C029BB19F7029
:1000E0009BB99BB1807F892B8BB9299A299A299832
:1000F0000895CF93C82F28980E946E008C2F829568
:10010000807F0E946E008FE39FE10197F1F700C0AE
:100110000000CF910895811104C080E8860F0C94EF
:10012000790080ECFBCF84B1836084B98AB1806FA1
:100130008AB98FE59AEE0197F1F700C0000080E3DD
:100140000E946E008FE19EE40197F1F700C000006D
:1001500080E30E946E008FED91E00197F1F700C0FF
:10016000000080E30E946E0080E20E946E008FE338
:100170009FE10197F1F700C0000088E20E9479003A
:100180008FE00C947900CF93C82F289A0E946E00BC
:100190008C2F8295807F0E946E008FE39FE10197F4
:1001A000F1F700C00000CF910895CF93DF93EC01E9
:1001B0008991811103C0DF91CF9108950E94C300FE
:1001C000F7CFECE7F0E0808180668083EAE7F0E03B
:1001D000808187688083089590917C00907F9093C0
:1001E0007C0090917C008F70892B80937C008091A3
:1001F0007A00806480937A0080917A0086FDFCCF3B
:10020000809179000895CF93DF93CDB7DEB7A097A3
:100210000FB6F894DEBF0FBECDBF0E9493000E94C0
:10022000E1000E944B0081E00E94790064E071E0EF
:10023000CE0101960E94A70260E080E00E948B0040
:10024000CE0101960E94D50060E171E0CE010D96CD
:100250000E94A70260E081E00E948B00CE010D9613
:100260000E94D5002FEF33ED80E3215030408040D5
:10027000E1F700C0000081E00E9479000E9497022F
:1002800000E210E0B8010E9423023C010E949702A4
:10029000B8010E9423027C010E949702B8010E94CB
:1002A00023026C017F926F9205E111E01F930F937F
:1002B0001F9284E0582E5F924E019AE1890E911CA4
:1002C0009F928F920E94AE02FF92EF921F930F9324
:1002D0001F925F925E0126E1A20EB11CBF92AF9207
:1002E0000E94AE02DF92CF921F930F931F925F92F4
:1002F0008E010E5E1F4F1F930F930E94AE0260E0AF
:1003000080E00E948B00C4010E94D500C5010E94BC
:10031000D500C8010E94D50060E081E00E948B00FA
:1003200089E191E00E94D5000FB6F894DEBF0FBEC0
:10033000CDBF412C512C9DE1892E91E0992E045F77
:100340001F4F80E00E94EC00382E86E6830D85303A
:1003500008F046C0151494F4652D81E00E948B00CE
:100360008BE191E00E94D5009DEF590E652D81E053
:100370000E948B0089E191E00E94D50083E00E94F9
:10038000EC00869586958695A82EB12C1F928F93AA
:100390009F928F921F9283E08F931F930F930E94DF
:1003A000AE026EE081E00E948B00C8010E94D50081
:1003B00086E3830D0FB6F894DEBF0FBECDBF853048
:1003C00088F561E0650D81E00E948B00C8010E9404
:1003D000D500511016C06A147B04C9F4439417C0A9
:1003E00022E0231558F235E0351544F2652D81E001
:1003F0000E948B008BE191E00E94D50083E0580EB3
:10040000B5CF33E0531218C0EA14FB0439F393E07C
:10041000491208C06AE080E00E948B0081E291E00E
:100420000E94D5002FEF31EE84E021503040804013
:10043000E1F700C0000085CF86E05812E8CFCA146B
:10044000DB0429F7CBCF97FB072E16F4009407D0D7
:1004500077FD09D00E94370207FC05D03EF4909545
:1004600081959F4F0895709561957F4F0895AA1BC0
:10047000BB1B51E107C0AA1FBB1FA617B70710F08F
:10048000A61BB70B881F991F5A95A9F780959095C1
:10049000BC01CD0108958F929F92AF92BF92CF92EF
:1004A000DF92EF92FF92CF93DF93EC016881798125
:1004B0008A819B81611571058105910521F464E2B2
:1004C00079ED8BE597E02DE133EF41E050E00E94BC
:1004D0005C0549015A019B01AC01A7EAB1E40E9405
:1004E0007B056B017C01ACEEB4EFA50194010E9489
:1004F0008905DC01CB018C0D9D1DAE1DBF1DB7FF15
:1005000003C00197A109B04888839983AA83BB835C
:100510009F77DF91CF91FF90EF90DF90CF90BF90CA
:10052000AF909F908F9008950E944B02089580E0B5
:1005300091E00E944B020895B0E0A0E0809300019A
:1005400090930101A0930201B09303010895FB0170
:10055000DC0101900D920020E1F70895AEE0B0E0DB
:10056000E4EBF2E00C949C050D891E898F89988D2F
:1005700026E02C831A83098397FF02C080E090E86D
:1005800001979E838D83AE01455E5F4F698D7A8DA5
:10059000CE0101960E94DE024D815E8157FD0AC0A8
:1005A0002F813885421753070CF49A01020F131F4D
:1005B000F80110822E96E4E00C94B805ABE0B0E0B0
:1005C000E4EEF2E00C948E057C013B018A01FC0113
:1005D00017821682838181FFC8C1CE0101965C011A
:1005E000F7019381F30193FD859193FF81913F0181
:1005F000882309F453C1853239F493FD859193FF23
:1006000081913F01853229F4B70190E00E94CE0428
:10061000E7CF912C212C312CFFE1F31538F08B32F0
:1006200011F190F4803209F1833229F137FC3CC09A
:1006300020ED280F2A3050F536FE20C08AE0989E23
:10064000200D1124922E06C08D3291F0803371F767
:10065000689430F8F30193FD859193FF81913F01F8
:100660008111DACF21C0689431F8689432F8F2CF62
:10067000689433F8EFCF689434F8ECCFEAE02E9E1C
:10068000200D1124222E689435F8E4CF8E3229F4FF
:1006900036FC04C1689436F8DDCF8C3619F46894C2
:1006A00037F8D8CF8836B1F2982F9F7D9554933084
:1006B000E0F08336A1F18337C1F1833509F063C0DF
:1006C0002801F2E04F0E511CF801C080D180692D45
:1006D00070E036FC02C06FEF7FEFC6010E94B804E5
:1006E0004C01689437F882010AC00C5F1F4FFFE38A
:1006F000F98388248394912C6501E89437F833FEBC
:100700002DC0522C8114910471F5552009F468CF45
:10071000B70180E290E00E94CE045A94F6CFF8012F
:10072000808189830E5F1F4FE4CF2801F2E04F0ED6
:10073000511CF801C080D180692D70E036FC02C0E8
:100740006FEF7FEFC6010E94C3044C018201D5CF39
:10075000B70180E290E00E94CE042A942814190484
:1007600009F0B0F7CECFF60137FC859137FE8191C5
:100770006F01B70190E00E94CE0451105A94F1E04D
:100780008F1A9108BFCF843619F0893609F077C0E7
:10079000F80137FE6BC060817181828193810C5FAB
:1007A0001F4FF32DFF763F2E97FF09C09095809540
:1007B000709561957F4F8F4F9F4F689437F82AE06F
:1007C00030E0A5010E94FE04C82ECA188C2C432CD0
:1007D00036FE0CC0E89440F8C91440F434FE05C05D
:1007E00032FC03C0F32DFE7E4F2E892C44FE95C0B3
:1007F000FE01EC0DF11D8081803309F087C0242DAE
:10080000297E422E842D8870582E43FC95C040FED0
:100810008FC09C2C821418F42C0C922C981844FE37
:1008200091C0B70180E390E00E94CE0442FE09C06F
:1008300088E790E041FE02C088E590E0B7010E94A1
:10084000CE04C91408F48AC0CA94D12C9FEFC91AE7
:10085000D90ACA0CDB1CF60182916F01B70190E046
:100860000E94CE04AC14BD04B1F74FCF60817181FA
:10087000072E000C880B990B0E5F1F4F92CFD32CC5
:10088000E894D4F82AE030E0853739F1232D297F28
:10089000D22E8F3601F148F48835A9F0F701868110
:1008A00097812B96E2E10C94AA05803749F08837AE
:1008B000A9F7D4FE02C06894D2F820E130E00DC060
:1008C0006894D4F8F6CF34FE03C0822F8660D82E09
:1008D00020E132E002C028E030E0F801D7FE0FC08E
:1008E00060817181828193810C5F1F4FA5010E94FD
:1008F000FE04C82ECA183D2CE89437F867CF6081F3
:10090000718190E080E00E5F1F4FF0CF42FC02C08B
:10091000839478CF8394839475CF842D867809F45B
:1009200071CFF6CFB70180E290E00E94CE048394AD
:100930008214C0F3512C73CF522C5818821408F42F
:100940006ECFF8CF842D867809F47BCF8BE241FE01
:1009500080E247FC8DE2B70190E071CFB70180E300
:1009600090E00E94CE049A946CCF8FEF9FEF99CFC6
:10097000FC010590615070400110D8F7809590956A
:100980008E0F9F1F0895FC0161507040019001106F
:10099000D8F7809590958E0F9F1F08950F931F9302
:1009A000CF93DF93182F092FEB018B8181FD09C0B5
:1009B0001FEF0FEF812F902FDF91CF911F910F919C
:1009C000089582FF14C02E813F818C819D8128175C
:1009D00039073CF4E881F981CF0101969983888336
:1009E00010838E819F8101969F838E83E3CFE8855C
:1009F000F985812F0995892BA1F3DACFFA01AA276E
:100A0000283051F1203181F1E8946F936E7F6E5F51
:100A10007F4F8F4F9F4FAF4FB1E03ED0B4E03CD0FF
:100A2000670F781F891F9A1FA11D680F791F8A1FE2
:100A3000911DA11D6A0F711D811D911DA11D20D049
:100A400009F468943F912AE0269F11243019305D03
:100A50003193DEF6CF010895462F4770405D4193F4
:100A6000B3E00FD0C9F7F6CF462F4F70405D4A3341
:100A700018F0495D31FD4052419302D0A9F7EACF09
:100A8000B4E0A6959795879577956795BA95C9F738
:100A900000976105710508959B01AC010A2E06942B
:100AA0005795479537952795BA95C9F7620F731FE4
:100AB000841F951FA01D0895052E97FB1EF400941A
:100AC0000E94730557FD07D00E94C50507FC03D09F
:100AD0004EF40C94730550954095309521953F4FF9
:100AE0004F4F5F4F089590958095709561957F4F1A
:100AF0008F4F9F4F08950E94E705A59F900DB49FCB
:100B0000900DA49F800D911D11240895B7FF0C94A2
:100B10007B050E947B05821B930B08952F923F92C9
:100B20004F925F926F927F928F929F92AF92BF92FD
:100B3000CF92DF92EF92FF920F931F93CF93DF93A9
:100B4000CDB7DEB7CA1BDB0B0FB6F894DEBF0FBE06
:100B5000CDBF09942A88398848885F846E847D8453
:100B60008C849B84AA84B984C884DF80EE80FD8055
:100B70000C811B81AA81B981CE0FD11D0FB6F894CB
:100B8000DEBF0FBECDBFED010895A1E21A2EAA1B54
:100B9000BB1BFD010DC0AA1FBB1FEE1FFF1FA2172D
:100BA000B307E407F50720F0A21BB30BE40BF50B2A
:100BB000661F771F881F991F1A9469F760957095B3
:100BC000809590959B01AC01BD01CF010895A29F36
:100BD000B001B39FC001A39F700D811D1124911D11
:100BE000B29F700D811D1124911D0895F894FFCFBF
:100BF000010000004545313039204C61622035004C
:100C00005061726900253364003E00200025326483
:080C100000556E6C6F636B0070
:00000001FF
