:100000000C9434000C943E000C943E000C943E0082
:100010000C943E000C943E000C943E000C943E0068
:100020000C943E000C943E000C943E000C943E0058
:100030000C943E000C943E000C943E000C943E0048
:100040000C943E000C943E000C943E000C943E0038
:100050000C943E000C943E000C943E000C943E0028
:100060000C943E000C943E0011241FBECFEFD8E04C
:10007000DEBFCDBF0E946D000C94F2000C94000016
:10008000882311F05A9A08955A9808955A9A2FEF92
:1000900084E39CE0215080409040E1F700C00000E4
:1000A00080E00C9440005A9A2FEF8EE994E22150A0
:1000B00080409040E1F700C0000080E00C944000D8
:1000C00023B130E0A90102C0559547958A95E2F722
:1000D000CA018095909581700895529A84B114B8A0
:1000E00085B1886385B983E00E946000882309F1A7
:1000F0000E9446002FEF84E39CE021508040904016
:10010000E1F700C000000E9446002FEF84E39CE06E
:10011000215080409040E1F700C000000E94530051
:100120002FEF8EE994E2215080409040E1F700C02B
:10013000000084E00E946000882309F10E944600CC
:100140002FEF84E39CE0215080409040E1F700C015
:1001500000000E9446002FEF84E39CE02150804085
:100160009040E1F700C000000E9446002FEF8EE9AA
:1001700094E2215080409040E1F700C0000085E00B
:100180000E946000882309F4AECF0E9453002FEF35
:1001900084E39CE0215080409040E1F700C00000E3
:1001A0000E9446002FEF84E39CE021508040904065
:1001B000E1F700C000000E9453002FEF84E39CE0B1
:1001C000215080409040E1F700C000000E944600AE
:1001D0002FEF8EE994E2215080409040E1F700C07B
:0801E000000081CFF894FFCF6D
:00000001FF
