:100000000C9434000C9451000C9451000C94510049
:100010000C9451000C9451000C9451000C9451001C
:100020000C9451000C9451000C9451000C948100DC
:100030000C9451000C9451000C9451000C945100FC
:100040000C9451000C9451000C9451000C945100EC
:100050000C9451000C9451000C9451000C945100DC
:100060000C9451000C94510011241FBECFEFD8E026
:10007000DEBFCDBF11E0A0E0B1E0E0E4F4E002C0FB
:1000800005900D92A431B107D9F721E0A4E1B1E0C8
:1000900001C01D92A931B207E1F70E942F010C9413
:1000A0001E020C940000EFE1FEE43197F1F700C06E
:1000B000000021E030E002C0220F331F8A95E2F7F2
:1000C00086B190E082239323892BD1F38FE19EE4C4
:1000D0000197F1F700C000000895E1E8F0E08081A9
:1000E00088608083AFE6B0E08C9182608C938AE672
:1000F00098E1909389008093880080818460808358
:1001000008951F920F920FB60F9211248F939F9311
:1001100080911601893084F4809116018F5F80935D
:10012000160110921401109215019F918F910F905A
:100130000FBE0F901F9018951092160181E08093CA
:10014000150190911701993034F4809117018F5F58
:1001500080931701EACF10921701809314018091C8
:100160001801853034F4809118018F5F8093180155
:10017000DCCF10921801D9CF9BB19F709BB99BB176
:10018000807F892B8BB9299A299A29980895CF9332
:10019000C82F28980E94BC008C2F8295807F0E94D7
:1001A000BC008FE39FE10197F1F700C00000CF9101
:1001B0000895811104C080E8860F0C94C70080EC7C
:1001C000FBCF84B1836084B98AB1806F8AB98FE52F
:1001D0009AEE0197F1F700C0000080E30E94BC0096
:1001E0008FE19EE40197F1F700C0000080E30E94D8
:1001F000BC008FED91E00197F1F700C0000080E3B3
:100200000E94BC0080E20E94BC008FE39FE1019746
:10021000F1F700C0000088E20E94C7008FE00C9454
:10022000C700CF93C82F289A0E94BC008C2F8295BC
:10023000807F0E94BC008FE39FE10197F1F700C02F
:100240000000CF910895CF93DF93EC018991811144
:1002500003C0DF91CF9108950E941101F7CFCF9392
:10026000DF93CDB7DEB761970FB6F894DEBF0FBE50
:10027000CDBF0E94E1000E946D0088B1846188B901
:1002800081E00E94C70062E071E0CE0101960E9409
:10029000170260E080E00E94D900CE0101960E9422
:1002A00023016EE071E0CE010D960E94170260E01E
:1002B00081E00E94D900CE010D960E9423012FEF0C
:1002C00083ED90E3215080409040E1F700C00000B2
:1002D00081E00E94C70061E080E00E94D90080E3D5
:1002E0000E9411018EE20E94110180E30E9411011F
:1002F0007894329B55C0349919C084E00E94530011
:1003000010921801109217011092160160E080E01F
:100310000E94D90080E20E94110180E30E94110135
:100320008EE20E94110180E30E9411018091810000
:100330008B7F80938100DDCF349908C084E00E94D8
:100340005300329929C082E00E9453008091140129
:10035000882359F060E080E00E94D9008091180164
:10036000811161C080E20E941101809115018823F2
:1003700049F061E080E00E94D90080911701805D22
:100380000E94110163E080E00E94D9008091160173
:10039000805D0E94110117C03499D3CF84E0D4CF7F
:1003A000809181008460809381008FE19EE40197B9
:1003B000F1F700C00000329B0CC08FE19EE4019772
:1003C000F1F700C000003299B7CF82E00E945300DD
:1003D000ADCF80911401882359F060E080E00E9445
:1003E000D9008091180181111AC080E20E94110188
:1003F00080911501882349F061E080E00E94D900D6
:1004000080911701805D0E94110163E080E00E94ED
:10041000D90080911601805D0E941101CCCF80919E
:100420001801805DE3CF80911801805D9CCFFB01B6
:10043000DC0101900D920020E1F70895F894FFCFC0
:1004400004024545313039204C616220360050614C
:0404500072690000CD
:00000001FF
