:100000000C9434000C9451000C9451000C94510049
:100010000C947A000C9451000C9451000C945100F3
:100020000C9451000C9451000C9451000C9420013C
:100030000C9451000C9451000C9451000C945100FC
:100040000C9451000C9451000C9451000C945100EC
:100050000C9451000C9451000C9451000C945100DC
:100060000C9451000C94510011241FBECFEFD8E026
:10007000DEBFCDBF11E0A0E0B1E0E0EEFBE002C0EA
:1000800005900D92A632B107D9F721E0A6E2B1E0C2
:1000900001C01D92A233B207E1F70E94C6010C9481
:1000A000EE050C940000880F991F9093290180930E
:1000B00028019C0150E040E060E074E284EF90E0B1
:1000C0000E94AD023093890020938800E1E8F0E0BF
:1000D000808181608083089505966AE070E00E94C7
:1000E00099026150710908F4089585E38A95F1F742
:1000F0000000F7CF1F920F920FB60F9211248F932B
:100100009F9386B180932E0180912E0186958170F8
:100110008093310180912E0185FB882780F980939F
:100120002D0180912F01811118C080912D01811125
:1001300008C080913101882321F081E08093300153
:100140004FC080912D018823F9F0809131018111F8
:100150001BC082E0809330010EC080912F0181305E
:1001600089F580912D01811123C080913101811188
:100170001FC01092300180912A0190912B010197AC
:1001800090932B0180932A019091300180912F014F
:10019000981739F081E080932C0180913001809391
:1001A0002F019F918F910F900FBE0F901F90189568
:1001B00080912D01882341F380913101882321F31F
:1001C00083E0BCCF80912F018230D1F480912D014A
:1001D00081110CC080913101811108C01092300151
:1001E00080912A0190912B010196CACF80912D0117
:1001F000882351F280913101882331F283E0AACF24
:1002000080912D01811106C080913101882311F068
:1002100081E0A0CF80912D01882309F4B5CF809192
:1002200031018111B1CF82E089CFE1E8F0E0808136
:1002300088608083EFE6F0E08081826080830895AB
:100240001F920F920FB60F9211242F933F938F930B
:100250009F9385B190E1892785B98091260190917E
:100260002701019690932701809326012091260172
:100270003091270180912801909129012817390791
:1002800049F4809181008E7F809381001092270134
:10029000109226019F918F913F912F910F900FBE49
:1002A0000F901F9018959BB19F709BB99BB1807F59
:1002B000892B8BB9299A299A29980895CF93C82F09
:1002C00028980E9453018C2F8295807F0E945301B1
:1002D0008FE39FE10197F1F700C00000CF910895EF
:1002E000811104C080E8860F0C945E0180ECFBCF86
:1002F00084B1836084B98AB1806F8AB98FE59AEE40
:100300000197F1F700C0000080E30E9453018FE1E4
:100310009EE40197F1F700C0000080E30E945301C2
:100320008FED91E00197F1F700C0000080E30E949B
:10033000530180E20E9453018FE39FE10197F1F79F
:1003400000C0000088E20E945E018FE00C945E0114
:10035000CF93C82F289A0E9453018C2F8295807FBB
:100360000E9453018FE39FE10197F1F700C0000065
:10037000CF910895CF93DF93EC018991811103C050
:10038000DF91CF9108950E94A801F7CFCF93DF931B
:10039000CDB7DEB7A2970FB6F894DEBF0FBECDBFC4
:1003A000249A88B1826288B90E947801809168009D
:1003B00082608093680080916C00826280936C0000
:1003C00078940E94150181E00E945E0160E171E075
:1003D000CE0142960E94020360E080E00E9470011C
:1003E000CE0142960E94BA016CE171E0CE014E96B8
:1003F0000E94020360E081E00E947001CE014E96EF
:100400000E94BA012FEF33ED80E32150304080404D
:10041000E1F700C0000081E00E945E0160E080E042
:100420000E94700180E191E00E94BA0186B1809340
:100430002E0180912E0186958170809331018091EB
:100440002E0185FB882780F980932D016FE081E0E4
:100450000E94700180E30E94A80180912D0181110A
:1004600050C08091310181114CC010922F018091B8
:100470002F018093300101E211E091E1D92E9E011C
:100480002F5F3F4F790180912C018823E1F3109277
:100490002C0160E081E00E94700180912A0190911E
:1004A0002B019F938F931F930F931F92DF92FF92C5
:1004B000EF920E940903C7010E94BA0180912A01AC
:1004C00090912B01877099270FB6F894DEBF0FBE6D
:1004D000CDBF892BC1F6E0912A01F0912B01F7FFE6
:1004E00003C0F195E195F109F695E795F695E79545
:1004F000EE70FF27E050FF4F808191810E945300F2
:10050000C2CF80912D01811108C0809131018823D3
:1005100021F081E080932F01AACF80912D018823C3
:1005200031F080913101811102C082E0F3CF83E08C
:10053000F1CF97FB072E16F4009407D077FD09D072
:100540000E94CC0207FC05D03EF4909581959F4F08
:100550000895709561957F4F0895052E97FB1EF4C1
:1005600000940E94C40257FD07D00E94E00207FCDD
:1005700003D04EF40C94C4025095409530952195CB
:100580003F4F4F4F5F4F08959095809570956195BF
:100590007F4F8F4F9F4F0895AA1BBB1B51E107C090
:1005A000AA1FBB1FA617B70710F0A61BB70B881F03
:1005B000991F5A95A9F780959095BC01CD01089592
:1005C000A1E21A2EAA1BBB1BFD010DC0AA1FBB1F57
:1005D000EE1FFF1FA217B307E407F50720F0A21BC9
:1005E000B30BE40BF50B661F771F881F991F1A9436
:1005F00069F760957095809590959B01AC01BD0160
:10060000CF010895FB01DC0101900D920020E1F77C
:100610000895AEE0B0E0EFE0F3E00C94C5050D897D
:100620001E898F89988D26E02C831A83098397FF72
:1006300002C080E090E801979E838D83AE01455E05
:100640005F4F698D7A8DCE0101960E9439034D81ED
:100650005E8157FD0AC02F813885421753070CF47D
:100660009A01020F131FF80110822E96E4E00C94F9
:10067000E105ABE0B0E0EFE3F3E00C94B7057C01FB
:100680003B018A01FC0117821682838181FFC8C168
:10069000CE0101965C01F7019381F30193FD8591F1
:1006A00093FF81913F01882309F453C1853239F4C6
:1006B00093FD859193FF81913F01853229F4B70124
:1006C00090E00E942905E7CF912C212C312CFFE1ED
:1006D000F31538F08B3211F190F4803209F1833246
:1006E00029F137FC3CC020ED280F2A3050F536FEAA
:1006F00020C08AE0989E200D1124922E06C08D32D3
:1007000091F0803371F7689430F8F30193FD85918F
:1007100093FF81913F018111DACF21C0689431F8B4
:10072000689432F8F2CF689433F8EFCF689434F8D5
:10073000ECCFEAE02E9E200D1124222E689435F88D
:10074000E4CF8E3229F436FC04C1689436F8DDCF4C
:100750008C3619F4689437F8D8CF8836B1F2982FD0
:100760009F7D95549330E0F08336A1F18337C1F13A
:10077000833509F063C02801F2E04F0E511CF801E7
:10078000C080D180692D70E036FC02C06FEF7FEF32
:10079000C6010E9413054C01689437F882010AC013
:1007A0000C5F1F4FFFE3F98388248394912C65012C
:1007B000E89437F833FE2DC0522C8114910471F562
:1007C000552009F468CFB70180E290E00E94290526
:1007D0005A94F6CFF801808189830E5F1F4FE4CFD2
:1007E0002801F2E04F0E511CF801C080D180692D24
:1007F00070E036FC02C06FEF7FEFC6010E941E055D
:100800004C018201D5CFB70180E290E00E9429051A
:100810002A942814190409F0B0F7CECFF60137FC5A
:10082000859137FE81916F01B70190E00E94290503
:1008300051105A94F1E08F1A9108BFCF843619F005
:10084000893609F077C0F80137FE6BC0608171818D
:10085000828193810C5F1F4FF32DFF763F2E97FF10
:1008600009C090958095709561957F4F8F4F9F4FF0
:10087000689437F82AE030E0A5010E945905C82E97
:10088000CA188C2C432C36FE0CC0E89440F8C914CE
:1008900040F434FE05C032FC03C0F32DFE7E4F2E23
:1008A000892C44FE95C0FE01EC0DF11D8081803342
:1008B00009F087C0242D297E422E842D8870582E61
:1008C00043FC95C040FE8FC09C2C821418F42C0C65
:1008D000922C981844FE91C0B70180E390E00E94EA
:1008E000290542FE09C088E790E041FE02C088E584
:1008F00090E0B7010E942905C91408F48AC0CA947F
:10090000D12C9FEFC91AD90ACA0CDB1CF6018291BF
:100910006F01B70190E00E942905AC14BD04B1F746
:100920004FCF60817181072E000C880B990B0E5FF1
:100930001F4F92CFD32CE894D4F82AE030E08537CB
:1009400039F1232D297FD22E8F3601F148F48835D5
:10095000A9F0F701868197812B96E2E10C94D305EB
:10096000803749F08837A9F7D4FE02C06894D2F8DE
:1009700020E130E00DC06894D4F8F6CF34FE03C017
:10098000822F8660D82E20E132E002C028E030E0DD
:10099000F801D7FE0FC060817181828193810C5F65
:1009A0001F4FA5010E945905C82ECA183D2CE89476
:1009B00037F867CF6081718190E080E00E5F1F4F54
:1009C000F0CF42FC02C0839478CF8394839475CF98
:1009D000842D867809F471CFF6CFB70180E290E0DC
:1009E0000E94290583948214C0F3512C73CF522C9A
:1009F0005818821408F46ECFF8CF842D867809F445
:100A00007BCF8BE241FE80E247FC8DE2B70190E0B4
:100A100071CFB70180E390E00E9429059A946CCFD2
:100A20008FEF9FEF99CFFC0105906150704001104E
:100A3000D8F7809590958E0F9F1F0895FC01615007
:100A4000704001900110D8F7809590958E0F9F1FF0
:100A500008950F931F93CF93DF93182F092FEB0166
:100A60008B8181FD09C01FEF0FEF812F902FDF9148
:100A7000CF911F910F91089582FF14C02E813F8165
:100A80008C819D81281739073CF4E881F981CF01D9
:100A900001969983888310838E819F8101969F831D
:100AA0008E83E3CFE885F985812F0995892BA1F302
:100AB000DACFFA01AA27283051F1203181F1E894E8
:100AC0006F936E7F6E5F7F4F8F4F9F4FAF4FB1E041
:100AD0003ED0B4E03CD0670F781F891F9A1FA11D3C
:100AE000680F791F8A1F911DA11D6A0F711D811D3D
:100AF000911DA11D20D009F468943F912AE0269F02
:100B000011243019305D3193DEF6CF010895462F60
:100B10004770405D4193B3E00FD0C9F7F6CF462F41
:100B20004F70405D4A3318F0495D31FD40524193AA
:100B300002D0A9F7EACFB4E0A69597958795779567
:100B40006795BA95C9F700976105710508959B01EE
:100B5000AC010A2E06945795479537952795BA9577
:100B6000C9F7620F731F841F951FA01D08952F9250
:100B70003F924F925F926F927F928F929F92AF922D
:100B8000BF92CF92DF92EF92FF920F931F93CF937A
:100B9000DF93CDB7DEB7CA1BDB0B0FB6F894DEBF11
:100BA0000FBECDBF09942A88398848885F846E8437
:100BB0007D848C849B84AA84B984C884DF80EE8081
:100BC000FD800C811B81AA81B981CE0FD11D0FB68A
:100BD000F894DEBF0FBECDBFED010895F894FFCFAE
:100BE000060126014A015D018801B801EE010B02F0
:100BF0004545313039204C616220370050617269BF
:060C0000002531366400FE
:00000001FF
